:020000040800F2
:1000000030280020010100081D3400084533000895
:1000100019340008590900083938000800000000A8
:10002000000000000000000000000000F1360008A1
:10003000750900080000000021340008F5360008AA
:100040001B0100081B0100081B0100081B01000820
:100050001B010008253400081B0100081B010008D3
:100060001B0100081B0100081B0100081B01000800
:100070005D090008690900081B0100081B01000850
:100080001B0100081B0100081B0100081B010008E0
:100090001B0100081B0100081B0100081B010008D0
:1000A0001B0100081B0100081B0100081B010008C0
:1000B000FD36000809370008153700081B01000845
:1000C0001B0100081B0100081B010008293400085F
:1000D0001B0100081B0100081B0100082D38000847
:1000E0001B0100081B0100081B010008DFF80CD0F1
:1000F00000F08CFB00480047F5580008302800202D
:100100000648804706480047FEE7FEE7FEE7FEE7B1
:10011000FEE7FEE7FEE7FEE7FEE7FEE7F93600084A
:10012000ED00000840EA01039B0703D009E008C97D
:10013000121F08C0042AFAD203E011F8013B00F8AC
:10014000013B521EF9D27047F0B480EA0102D40F8D
:100150004200B2EB410F02D20246084611464A0065
:1001600042D0C30DDDB2C1F3C752AD1A202D35DA2E
:10017000C1F3160141F4000204B15242C5F1200658
:1001800002FA06F12A411044B3EBD05F23D0C4B188
:10019000012DA0EBC35009DCF0BC4FF0004202EA95
:1001A000C352DBB200F5000000F04AB9400000F194
:1001B000807000EBC350A0F1807040EAD17049001C
:1001C00009E0490841EAC071A0EBC35000F5000006
:1001D000400800EBC350F0BC00F029B96142012295
:1001E00002EB4101001BF6E7F0BC704781F00041D3
:1001F000AAE780F00040A7E780EA010210B502F00C
:100200000043400022D04A001FD0010E01EB1261D2
:10021000C0F35600C2F3560240F4000042F400025C
:10022000A0FB022000047F39140400D0401C50EAD7
:10023000124001D44000491EC2B20C0604EBD0109B
:10024000401C4008802A02D003E0002010BD20F0AE
:100250000100002900DA0020184310BD30B480EA04
:10026000010202F0004530F0004221F0004013D0BE
:1002700090B1C30DD40DC2F31601C0F31600E41AF9
:1002800041F4000140F400027D34914201D3641C2A
:1002900000E04900002C02DA30BC002070474FF427
:1002A00000000023914201D3891A034340084FEA1A
:1002B0004101F7D151B1914202D14FF0004105E027
:1002C00002D24FF0010101E06FF0010103EBC450D5
:1002D000284430BC00F0ABB8002801DBC0F100407E
:1002E000002901DBC1F10041814201D801207047A2
:1002F00000207047002801DBC0F10040002901DB2D
:10030000C1F10041814201D20120704700207047B5
:10031000002801DBC0F10040002901DBC1F10041F0
:10032000814201D10120704700207047C10F80EA4F
:10033000E0700844CA079623002100F081B8962394
:100340000022114600F07CB800F0004220F000408E
:10035000C10DC0F3160040F400007F2901DA00202F
:100360007047962903DCC1F19601C84001E0963937
:100370008840002AF4D04042704700F0004230F03C
:1003800000400AD0C10D01F56071C0F3160042EAC9
:100390000151C208400711437047002001467047D1
:1003A00030B50B46014600202022012409E021FA45
:1003B00002F59D4205D303FA02F5491B04FA02F542
:1003C0002844151EA2F10102F1DC30BD2DE9F05FD9
:1003D0000546002092469B468846064681464024B4
:1003E0001BE0284641464746224600F036FA53466F
:1003F0005A46C01A914110D311461846224600F0C1
:100400001DFA2D1A67EB01084F46224601200021F4
:1004100000F014FA17EB00094E41201EA4F101046C
:10042000DFDC484631462A464346BDE8F09F0029B6
:10043000A8BF7047401C490008BF20F0010070476A
:1004400010B4B0FA80FC00FA0CF050EA010404BFCA
:1004500010BC704749B1CCF1200421FA04F411FA20
:100460000CF118BF012121430843A3EB0C01CB1D64
:100470004FEA00614FEA102042BF002010BC7047D5
:1004800000EBC35010440029A4BF10BC7047401CAF
:10049000490008BF20F0010010BC70472DE9FE4F55
:1004A000804681EA0300C00F0C46009021F0004115
:1004B00023F00045B8EB0200A94105D24046214691
:1004C00090461C460B46024623F00040104347D09E
:1004D000270DC7F30A00C3F30A510290401A019096
:1004E00040286BDAC3F3130040F4801B0098924657
:1004F00020B10023D2EB030A63EB0B0B01985946A2
:10050000C0F14002504600F099F906460D465046AB
:100510005946019A00F0B1F910EB0800614100243E
:1005200087EA115284EAE7731A4340D0009A62B313
:10053000019A012A4FEA075215DC001B61EB020108
:100540004FF0004202EA0752CDE90042001C41F59B
:10055000801132462B4600F0B1F903B0BDE8F08FB0
:1005600040462146F9E7001B61EB0201001C41F502
:10057000801300185B412018A2F5001747EB030118
:1005800040EAD570B6196D4111E06D084FEA3606A4
:1005900045EAC0754FEA0752001B61EB0201001CDF
:1005A00041F5801149084FEA3000001951413246A7
:1005B0002B4603B0BDE8F04F00F071B9009801225E
:1005C00040000023D0EB020263EBE0730098214669
:1005D0004FEAE074B8EB000061EB0401E9E783F057
:1005E00000435BE781F0004158E72DE9FE4F81EAC7
:1005F000030404F0004421F0004100944FF0000B8C
:1006000023F0004350EA01045ED052EA03045BD0B9
:10061000C3F30A54C1F30A552C44A4F2F3340194F1
:10062000A0FB0254C1F3130141F48011C3F313037F
:1006300043F4801301FB024400FB034E840A970A33
:1006400044EA815447EA8357A4FB076802958D0A60
:1006500005FB07854FEA932C04FB0C542705029DEC
:100660004FEA065847EA1637B5EB08056EEB070C5C
:10067000870E920E47EA811742EA8312A7FB020116
:10068000B6EB0B0164EB00042B0D43EA0C335E1850
:1006900044EB1C50DA465146E7FB0201C5F3130454
:1006A0004FEA0B3343EA14534FEA0432019C43EA06
:1006B0000603A4F10C040294009CCDE900B400F000
:1006C000FDF803B0BDE8F08F00200146F9E72DE901
:1006D000F04D81EA030404F0004B21F0004514467C
:1006E0004FF0000A23F0004150EA050220D054EAFE
:1006F00001021DD0C5F30A570246C5F31303C1F327
:100700001300C1F30A5640F4801543F48013A7EB9D
:100710000608101BD64608F2FD3873EB050002D31D
:1007200008F1010801E092185B41B8F1000F03DA0B
:1007300000200146BDE8F08D00204FF480110646F0
:1007400084460EE0171B73EB050705D3121B63EB02
:10075000050306434CEA010C49084FEA30009218A1
:100760005B4150EA0107EDD152EA030012D082EA60
:10077000040083EA0501084305D0101BAB4106D2F3
:100780000122002306E000224FF0004302E06FF058
:10079000010253101AEB06004CEB085110EB0A0053
:1007A00041EB0B01BDE8F04D00F079B8C1F30A52FE
:1007B000C1F3130140F2FF3341F480119A4202DA8F
:1007C00000200146704740F233439A42A2F233427E
:1007D00002DC524200F041B800F030B830B5041EDF
:1007E00071F1000404DB4FF00044404264EB01016E
:1007F000141E73F1000405DB1C464FF00043524207
:1008000063EB0403994208BF904230BD1CB5094810
:100810000090094801900546009C06E0E06840F021
:10082000010394E8070098471034AC42F6D3FFF771
:1008300061FC00000090000820900008202A04DBE2
:10084000203A00FA02F1002070479140C2F12003E3
:1008500020FA03F3194390407047202A04DB203A22
:1008600021FA02F00021704721FA02F3D040C2F1D0
:1008700020029140084319467047202A06DBCB1717
:10088000203A41FA02F043EAE07306E041FA02F34B
:10089000D040C2F12002914008431946704710B57C
:1008A000141E73F1000408DA401C41F10001921893
:1008B0005B411A4301D120F0010010BD2DE9F04D3C
:1008C00092469B4611B1B1FA81F202E0B0FA80F291
:1008D00020329046FFF7B2FF04460F4640EA0A0076
:1008E00041EA0B0153465A46084313D0114653EAD6
:1008F000010019D0C8F140025046FFF7AEFF05468F
:100900000E46504659464246FFF798FF084305D029
:10091000012004E020463946BDE8F08D0020054363
:1009200046EAE0762C4337430A986305E40AA0EBD5
:1009300008000022FD0A44EA47540A3002D500208C
:100940000146E9E7010510196941DDE9084500198B
:100950006941BDE8F04DA2E7FEE7000042F2282021
:10096000C2F2000000F08EB842F26C20C2F2000029
:1009700000F088B870470000EFF3108072B600BF37
:10098000FEE70000014690F82100022816D1086811
:10099000D1E90FC3026822F00E020260026822F061
:1009A00001020260012000FA03F2CCF8042081F871
:1009B00021000020002281F8202070470420886355
:1009C0000120002281F820207047000090F82110BB
:1009D000022923D1026840F2040C1168C4F2020C0F
:1009E00021F00E01116013682F21C4F202018A4226
:1009F00023F00103136015DD3023C4F202039A4291
:100A00001CD04423C4F202039A421BD05823C4F2E0
:100A100002039A421CD14FF4803321E00421816308
:100A2000012070470823C4F202039A420ED01C230F
:100A3000C4F202039A420BD1102311E04FF48073E9
:100A40000EE000BF4FF480530AE000BF012307E02F
:100A50000CF168014FF080738A4208BF4FF4801395
:100A60000121CCF8003080F82110416B00220029D0
:100A700080F8202004BF0020704780B58847002000
:100A800080BD000010B5D0E90FCE0168DCF8003061
:100A90000A6823FA0EF35C072AD512F0040427D063
:100AA0000A68920603D40A6822F004020A602F2220
:100AB000C4F20202914240F20402C4F202025BDD7F
:100AC0003023C4F20203994272D04423C4F20203D9
:100AD000994273D05823C4F20203994240F07A80BD
:100AE0004FF480231360C16A002940F098806FE0C2
:100AF0009C0727D512F0020424D00A68920606D477
:100B00000A6822F00A020A60012280F821202F22BE
:100B1000C4F20202914240F20402C4F202023BDD3E
:100B20003023C4F20203994260D04423C4F202038A
:100B300099425FD05823C4F20203994260D14FF426
:100B4000003365E01B0743D512F0080208BF10BD53
:100B50000A6822F00E020A60012101FA0EF2CCF8B6
:100B60000420816380F82110016B0022002980F8A5
:100B7000202054D12CE000BF0823C4F20203994284
:100B800022D01C23C4F20203994223D140231360D4
:100B9000C16A002943D11BE00823C4F20203994231
:100BA0002CD01C23C4F20203994229D120232FE028
:100BB0004FF480631360C16A89BB09E04FF480433E
:100BC0001360C16A59BB03E004231360C16A31BBDF
:100BD00010BD00BF02F168044FF08063A14208BF5E
:100BE0004FF480031360C16AC9B9F1E74FF4007391
:100BF0000EE000BF4FF400530AE000BF022307E0FD
:100C000002F168044FF00073A14208BF4FF40013D3
:100C10001360816A0022002980F82020D8D0BDE826
:100C200010400847014600284FF0010008BF7047F8
:100C30002DE9F043D1F800C04FF6F873CBF6FD7301
:100C40004CF6CD426344CCF6CC42A3FB02236FF0BA
:100C5000030202EA93020023C4F2020301F10C082A
:100C6000C1E90F320222D1E9019E98E8F00181F832
:100C70002120DCF8002043F6F0739A4342EA09028F
:100C800042EA0E0222432A4332433A4342EA08022E
:100C9000CCF8002000228A6381F8210081F820200E
:100CA0000020BDE8F043704790F820C0BCF1010F70
:100CB00004BF02207047F0B54FF0010E80F820E02D
:100CC00090F821C0BCF1010F26D14FF0020C80F842
:100CD00021C04FF0000CC0F838C0D0E900C4C56A8C
:100CE000C66BDCF80070102C27F00107CCF8007000
:100CF000006C0EFA00F070600846CCF8043004BFB7
:100D000010460A46CCF80800CCF80C20DCF80000AD
:100D100045B140F00E000DE0002180F820100220C7
:100D2000F0BD00BF20F00400CCF80000DCF80000AB
:100D300040F00A00CCF80000DCF8000040F00100B0
:100D4000CCF800000020F0BDB0B5044600F024F956
:100D5000054640F20400C2F200000078611C18BF92
:100D6000044400BF00F018F9401BA042FAD3B0BD04
:100D70002DE9F04F82B00E68002E00F0FD8041F2A8
:100D80000042C4F20102042340F2004E904208BF28
:100D900003234FF6FF7CC4F2010E009300240123CD
:100DA000C1F2100C4FF0000A4FF000094BE000BFF9
:100DB00041F20002C4F20102009F904208BF0227E4
:100DC00004F00C030F229A402BEA020207FA03F305
:100DD0004FEA9A051A4346F825204E6840F20C4522
:100DE000F202DEF8082054BF22EA080242EA0802B2
:100DF000C4F20105CEF808202A68B30254BF22EAE3
:100E0000080242EA08022A60B303DEF8042054BF55
:100E100022EA080242EA0802F303CEF80420DEF8D0
:100E200000204FF0010354BF22EA080242EA080200
:100E3000CEF800200E680AF1010A36FA0AF204F12F
:100E4000040400F0998003FA0AFB16EA0B08F1D0BB
:100E50004E68664512DC122E56D8DFE806F0350BD8
:100E60004D49555555555555555555555555554556
:100E7000510000BFD1F80C9046E000BF4FF6FF7262
:100E8000C1F2210296420FDC0022C1F21102964209
:100E90001AD00022C1F21202964215D00022C1F2ED
:100EA0002102964210D02FE00022C1F22202964287
:100EB0000AD00022C1F23102964205D00022C1F2CE
:100EC0003202964220D100BF8A684AB1012A14BF7B
:100ED000C0F814B0C0F810B04FF0080914E000BF1B
:100EE0004FF0040910E000BFCA6802F104090BE0EA
:100EF0004FF0000908E000BFCA6802F1080903E0EA
:100F0000CA6802F10C0900BF02462646B8F5807F88
:100F100024BF0432203E17680F25B54027EA050597
:100F200009FA06F635431560CA79D2067FF582AF15
:100F300041F21803C4F202031A68AEF57E7642F05D
:100F400001021A601A6802F001020192019A2AF065
:100F5000030256F802B040F60002C4F201029042C9
:100F600008D040F60042C4F2010290427FF420AF64
:100F7000012725E7002723E702B0BDE8F08F000036
:100F80008068084018BF012070470000002A08BF91
:100F9000090401617047000042F22840C2F20000DB
:100FA0000068704740F2040042F22841C2F200009B
:100FB000C2F2000100780A6810440860704700001F
:100FC00080B542F20000C4F20200016841F0100155
:100FD0000160032000F094F80F2000F005F800F005
:100FE00027F8002080BD000070B540F20406C2F270
:100FF000000640F2E0013278C2F200014FF47A7349
:101000000968B3FBF2F20446B1FBF2F1084600F0C6
:1010100019FE0F2C4FF0010508D838B94FF0FF30FA
:1010200021460022002500F03FF87460284670BD7C
:1010300080B582B041F21800C4F2020001680022BB
:1010400041F001010160016801F001010191019984
:10105000416841F0805141604068002100F08050BB
:1010600000900098052000F01FF8052000F00AF815
:101070000420C4F201000168022262F31A610160D7
:1010800002B080BD002848BF704700F01F01012258
:1010900002FA01F11C2202EAD0004EF20012CEF256
:1010A000000281507047000010B54EF60C5CCEF285
:1010B000000CDCF80030C3F3022E8EF00704042C81
:1010C00028BF0424BEF103034FF0FF3E0EFA04F4E0
:1010D00038BF0023A14399400EFA03F39A4311430A
:1010E00000F00F0200F160430901043A03F5644384
:1010F0006244002848BF02F10C03197010BD0000C3
:101100004EF60C51CEF200010A684FF6FF031A406A
:1011100060F30A2242F0806040F0FD700860704782
:10112000002804BF012070472DE9F04381B042F24E
:101130000008C4F202080446D8F800000D4600F08A
:10114000070088420CD2D8F8000020F0070028439E
:10115000C8F80000D8F8000000F00700A8426CD1E1
:10116000206841F204098107C4F2020917D541073A
:1011700005D5D9F8001041F4E061C9F80010010765
:1011800005D5D9F8001041F46051C9F80010D9F81C
:101190000010A26821F0F0011143C9F80010C00747
:1011A00042D1D8F8000000F00700A8420CD9D8F8C6
:1011B000000020F007002843C8F80000D8F800001D
:1011C00000F00700A84238D12068410707D5D9F8B8
:1011D0000010E26821F4E0611143C9F80010000733
:1011E00008D5D9F80000216920F4605040EAC10018
:1011F000C9F80000D9F8002002F00C00082841F2DC
:101200000020C0F27A004DD148F6E473C2F3834166
:10121000C0F60003595CD20338D440F60010C0F287
:101220003D0048433EE000BF606859F8041C0228B6
:1012300008D0012826D1890306D4012001B0BDE8D9
:10124000F08300BF8901F8D5D9F8001021F003011F
:101250000843C9F80000FFF79FFE064641F28837B1
:10126000D9F80000616800F00C00B0EB810F98D055
:10127000FFF792FE801BB842F2D9032001B0BDE80F
:10128000F08300BF8907D8D5DEE700BFD9F800207A
:1012900046F69A73C2F34042C0F600039A5C484394
:1012A000B0FBF2F0D9F8001046F68272C1F30311D8
:1012B000C0F60002515C40F2E00220FA01F140F277
:1012C0000800C2F200000068C2F200021160FFF7DD
:1012D0008BFE002001B0BDE8F083000040F2E0008A
:1012E00041F20401C2F20000C4F202010068096880
:1012F00046F69272C1F30221C0F60002515CC8406A
:101300007047000040F2E00041F20401C2F2000028
:10131000C4F202010068096846F69272C1F3C22164
:10132000C0F60002515CC84070470000002804BFAE
:10133000012070472DE9F04182B00446007841F267
:101340000006C007C4F202060CD0706800F00C0062
:10135000042840F081803068800303D5606800284D
:1013600000F04681207880071BD5706810F00C0FC4
:1013700009D0706800F00C00082840F08780706881
:10138000C00300F183803068800703D520690128FD
:1013900040F02E813068616920F0F80040EAC10019
:1013A00030602078000713D4207840072CD4E569FA
:1013B000002D00F01881706800F00C00082840F043
:1013C000A780012D40F00481012002B0BDE8F0812A
:1013D000A069002800F084800020C4F2422001218E
:1013E000C0F88014FFF7D8FD054600BF706A80077B
:1013F00000F1B280FFF7D0FD401B0228F6D9032090
:1014000002B0BDE8F08100BFF0695FEAC00808D40F
:10141000F06940F08050F061F06900F08050009079
:10142000009847F20007C4F200073868C00549D4A5
:10143000386840F480703860FFF7AEFD054600BFA5
:101440003868C0053ED4FFF7A7FD401B6428F7D9D4
:10145000032002B0BDE8F081706800F00C0008289D
:1014600003D17068C0033FF576AF6168306800292A
:1014700000F00C81B1F5A02F00F00081B1F5803FA4
:1014800040F01A8140F480301CE100BF2069002840
:1014900040F20000C4F2422000F088800121016087
:1014A000FFF77AFD054600BF306880073FF572AF51
:1014B000FFF772FD401B0228F6D9032002B0BDE8F9
:1014C000F08100BFE168306A002900F09D800529A5
:1014D00000F09280012940F0AF8040F00100B1E0BF
:1014E0000020C4F242200021C0F88014FFF754FD10
:1014F000054600BF706A80077FF556AFFFF74CFDC9
:10150000401B0228F6D9032002B0BDE8F08100BFDD
:101510000027C4F2422700203866FFF73DFD022D68
:1015200005460DD13068800140F1DE80FFF734FDC3
:10153000401B02284FF00300F4D902B0BDE8F0814F
:10154000306880014FD5FFF727FD401B02284FF080
:101550000300F5D9F1E700BF40F2E000C2F200005D
:10156000006844F6D351C1F26201A0FB0101480AB0
:10157000019000BF00BF0198411E002801913FF477
:1015800013AF00BF0198411E002801913FF40CAF3A
:1015900000BF0198411E002801913FF405AF00BF34
:1015A0000198411E00280191E4D1FDE6002101606F
:1015B000FFF7F2FC054600BF306880077FF5F1AE0B
:1015C000FFF7EAFC401B02284FF00300F4D9B4E710
:1015D0007068216A00F480328A4209D1616A00F49D
:1015E0007010884204D1002002B0BDE8F08100BF35
:1015F000012002B0BDE8F08140F004003062306AA2
:1016000040F001001EE000BF20F001003062306AAF
:1016100020F004003062FFF7BFFC054641F2883736
:10162000306A800720D5FFF7B7FC401BB8424FF067
:101630000300F5D981E700BF20F001003062306A75
:1016400020F004003062FFF7A7FC054641F288371E
:10165000306A800708D4FFF79FFC401BB842F7D9D7
:10166000032002B0BDE8F081B8F1000F3FF59FAE56
:10167000F06920F08050F06199E600BF40F48020CE
:101680003060306840F480301CE000BF20F48030CF
:101690003060306820F480203060FFF77DFC054624
:1016A000306880037FF55EAEFFF776FC401B642850
:1016B0004FF00300F4D940E720F480303060306808
:1016C00020F480203060FFF767FC05463068800317
:1016D0003FF548AEFFF760FC401B6428F6D90320B5
:1016E00002B0BDE8F08100BF206AB0F5803F05D1AF
:1016F0007168A26821F40031114371607168626AF7
:1017000021F4741111430843706001203866FFF71B
:1017100043FC0446306880013FF565AFFFF73CFCB1
:10172000001B02284FF00300F4D906E770470000C1
:10173000B0B584B001684A688B6803F04105012D9B
:1017400008D112F0400505D0016C04B0BDE8B040EE
:10175000084700BF9D0707D512F0800504D0416CF3
:1017600004B0BDE8B040084713F0600F18BF12F096
:10177000200501D104B0B0BD5D0618D590F85150D8
:10178000032D09D100200290C86802908868029059
:10179000029804B0B0BD00BF456D45F00405456535
:1017A00000250395CD6803958D680395039D9B06E1
:1017B0000CD5436D43F001034365002301938B680F
:1017C00001930B6823F040030B60019B436D002BDA
:1017D000D0D04B68920723F0E0034B604FF0010339
:1017E00080F8513026D04A6843F2354422F0030293
:1017F0004A60C16CC0F6000459B1054608464C6306
:10180000FFF7E4F80146284619B1416D41F0400167
:101810004165816C0029ADD04C6304460846FFF752
:10182000D5F80028A6D0606D40F04000606504B097
:10183000B0BD00BF04B0BDE8B040FFF777BF000007
:1018400070B528B1416A29B100210161142106E077
:10185000012070BD4168B1F5827F02D01C210022B9
:1018600042500026866290F8511029B980F85060E5
:10187000054600F039F82846022180F8511090E81A
:101880002E0002F482720C6803F4044324F0400436
:101890000C601A4405F4006305691A4405F002035C
:1018A00045691A4405F001038569C4691A4405F4C1
:1018B00000731A4404F03803046A1A4404F08003E5
:1018C000846A1A4304F400531A430A60042202EAA9
:1018D00015424A60CA6922F40062CA610121466564
:1018E00080F85110304670BD2DE9F04186B040F6C9
:1018F00000050446C4F20105006805F520510027E3
:1019000088420597CDE90377029703D006B0BDE87A
:10191000F08100BF41F21800C4F20200016802AE7B
:1019200041F480510160016840F21C0801F48051CB
:10193000019101990168C4F2020841F004010160BB
:101940000068314600F0040001900198A020029048
:1019500002200390032005902846FFF709FA402053
:10196000CDE90207284631460497FFF701FA42F213
:101970002825C2F2000580262846C5E90087C5E96A
:101980000276C5E90477C5E90677FFF74BF9002829
:1019900018BFFEF7F1FFE5646C6242F26C2508F1B6
:1019A0001400C2F200051021002285E847002846F5
:1019B000C5E90422C5E90622FFF734F9002818BF5B
:1019C000FEF7DAFF232000210022A5646C62FFF7F6
:1019D0006BFB2320FFF756FB06B0BDE8F08100004B
:1019E0007047000070470000F0B581B090F850607B
:1019F000012E05D14FF0020C604601B0F0BD00BFD2
:101A0000012680F8506090F85160012E5ED10029C7
:101A10004FF0010C18BF002A66D0002B64D090F85C
:101A200051600446042E1CBF052680F85160002634
:101A300044F8546F01638386C38682638387C387B8
:101A4000C0E9106690F8511043F2614343F27147C8
:101A5000C0F60003C0F600070568D0F84CC00429A2
:101A600008BF1F4643F2794143F2A153C0F600017B
:101A7000C0F6000308BF0B4643F24141C0F6000127
:101A8000CCE90A37CCE90C16C38F074605F10C01E7
:101A90006046FFF709F980B93D68B86C696805F1DF
:101AA0000C0241F001016960C0E90A66C0E90C66F8
:101AB000396BFB8EFFF7F8F8E0B14FF0010C102105
:101AC00038462268114321600EE000BF4568B5F535
:101AD000827F07D1042E4FF0020C05D18668002EBC
:101AE00095D001E04FF0020C002180F850106046C4
:101AF00001B0F0BD3C6838462168490603D421682E
:101B000041F04001216054F8041F4FF0000C41F0F7
:101B1000200121600221D4E790F85030012B04BF4E
:101B200002207047012380F8503090F85130012B8B
:101B30000AD100294FF0010318BF002A0AD1002161
:101B400080F85010184670470223002180F850108A
:101B50001846704770B5032380F8513000230446BF
:101B600044F8543F01638286C2868363C0E9103320
:101B70008387C38785680268B5F5004F07D115686C
:101B800025F040051560156845F480451560D0F8CE
:101B900048C043F2694E43F2215543F24146C0F634
:101BA000000EC0F60005C0F60006CCE90A5ECCE9DE
:101BB0000C63C38E05460C326046FFF775F818B10A
:101BC0000123102128460FE02C6828462168490689
:101BD00003D4216841F04001216054F8041F002320
:101BE00041F0200121600221226811432160BDE8FB
:101BF0007040002180F8501018467047006843F28A
:101C00000001C4F20101884218BF704740F244103D
:101C1000C2F200000121017070470000704700000F
:101C2000006843F20001C4F20101884218BF704706
:101C300040F24410C2F20000012101707047000020
:101C400070470000411E0020B0EB116F1CBF012047
:101C500070474EF21002CEF2000251604EF6235150
:101C6000CEF20001F0230B700721906011607047E5
:101C7000704700007047000090F83C20012A04BF24
:101C800002207047B0B501F108053CCDD1E900CE86
:101C900023F47C5322F470521A432EF4F0431A4377
:101CA0002CF4E0431A4324F4C0431A432A43C9697D
:101CB00022F48042036811435964002180F83C10EB
:101CC0000020B0BD90F83C20012A4FF0020236D02F
:101CD00010B580F83D200268D2F804E0D2F808C0C0
:101CE0000C682EF07003234340F2FF74C4F200042A
:101CF000A24253600ADCB2F1804F13D040F200439D
:101D0000C4F200039A420DD011E000BF42F6004336
:101D1000C4F201039A4205D040F60003C4F2000366
:101D20009A4204D149682CF0800319439160012143
:101D3000002280F83D1080F83C20BDE8104010469D
:101D400070470000002804BF0120704710B590F8CC
:101D50003D1031B9002180F83C10044600F068F8CD
:101D60002046022180F83D10016840F2FF740B68A4
:101D7000C4F2000442F6004CA142C4F2010C15DC8E
:101D8000B1F1804F1AD040F20042C4F200029142F9
:101D900014D0A14218DCB1F1804F1DD040F20042B6
:101DA000C4F20002914217D01AE000BF614505D08D
:101DB00040F60002C4F200029142EAD1826823F0A8
:101DC00070031343A142E6DD614505D040F60002F1
:101DD000C4F20002914203D1026923F44073134319
:101DE000846923F08002D0F804E0C368224361458F
:101DF0000A60CB62C1F828E002D14269CCF83020F9
:101E000001224A6180F8462080F83E2080F83F2079
:101E100080F8402080F8412080F8422080F843205C
:101E200080F8442080F8452080F83D20002010BD37
:101E300080B582B00068B0F1804F15D042F6004105
:101E4000C4F2010188420CD141F21800C4F2020030
:101E5000016841F400610160006800F400600190D5
:101E6000019802B080BD00BF41F21800C4F2020028
:101E70004168002241F0010141604068012100F009
:101E80000100009000981C20FFF70EF91C2002B002
:101E9000BDE88040FFF7F6B890F83D1001291CBF5F
:101EA00001207047022180F83D10006840F2FF7267
:101EB000C168C4F20002904241F00101C16009DC36
:101EC000B0F1804F12D040F20041C4F200018842CC
:101ED0000CD012E042F60041C4F20101884205D064
:101EE00040F60001C4F20001884206D1816801F089
:101EF0000701062904BF00207047016841F0010175
:101F0000016000207047000090F83C20012A4FF04B
:101F100002026CD080B580F83D20D0F800C04FF6AA
:101F20007772DCF8083023EA0202CCF808200B684C
:101F30004F2B29DC1F2B45DD202B46D0302B44D0E6
:101F4000402B40F0AF80D1F804E0C968DCF82030C5
:101F5000DCF8202022F00102CCF82020DCF8182048
:101F600022F0F00242EA011123F00A0242EA0E02D4
:101F7000CCF81810CCF82020DCF8081041F047010C
:101F800021F0300128E000BF6F2B33DDB3F5005F97
:101F900074D0B3F5805F21D0702B40F08380D1E9FD
:101FA00001E3C968DCF8082043EA0E0322F47F420B
:101FB00043EA01211143CCF80810DCF8081041F085
:101FC000770109E00BB1102B6CD1DCF8081021F07F
:101FD0007001194341F00701CCF8081000220121DB
:101FE00080F83D10002180F83C10BDE8804010468C
:101FF000704700BF502B21D0602B53D1D1F804E0A3
:10200000C968DCF82030DCF8202022F01002CCF87F
:102010002020DCF8182022F4704242EA013123F03B
:10202000A00242EA0E12CCF81810CCF82020DCF8FE
:10203000081041F0670121F01001CDE7D1F804E06C
:10204000C968DCF82030DCF8202022F00102CCF84E
:102050002020DCF8182022F0F00242EA011123F0DF
:102060000A0242EA0E02CCF81810CCF82020DCF864
:10207000081041F0570121F02001ADE7D1E901E35B
:10208000C968DCF8082043EA0E0322F47F4243EAE1
:1020900001211143CCF80810DCF8081041F480410C
:1020A0009AE700BF01229AE7002804BF0120704789
:1020B0002DE9F04F81B090F83D2042B9002280F820
:1020C0003C2004460D4600F097F82946204602229F
:1020D00080F83D20026844F20705936842F6004C00
:1020E000AB43936040F2FF731468C4F200039A425A
:1020F000C4F2010C14DCB2F1804F19D040F200455B
:10210000C4F20005AA4213D09A4217DCB2F1804F04
:102110001CD040F20043C4F200039A4216D01AE0E9
:10212000624505D040F60005C4F20005AA42EBD195
:10213000856824F070042C439A42E7DD624505D09F
:1021400040F60003C4F200039A4204D1036924F468
:10215000407543EA050424F080038469D0F804E064
:10216000C568234362451360D562C2F828E002D1F6
:102170004369CCF830304FF00109C2F814909568EB
:10218000D2F818E0D2F820C0D1E90048D1E9027BAA
:1021900044EA050A8D694FF6FF732EEA030E47EAFB
:1021A00005274FF6FC45AF43D1E907544BEA0E0330
:1021B0000E693B4343EA05232CF02207496943EAB1
:1021C000061347EA080743EA043347EA0111C2F855
:1021D00008A09361116280F8469080F83E9080F8E4
:1021E0003F9080F8429080F8439080F83D90002026
:1021F00001B0BDE8F08F000010B586B0006840F671
:102200000002C4F20002002190420591CDE90311C1
:10221000029137D040F20041C4F2000188425BD104
:1022200041F21800C4F20200416841F0020141602D
:10223000416801F0020101910199016841F0080132
:102240000160006802A900F00800019001983020A8
:1022500002900020CDE9030040F60040C4F20100E6
:10226000FEF786FD0420C4F2010001684FF2FF3240
:10227000CFF6FF02114041F0E06141F400610160DE
:102280001D2421E041F21800C4F20200426842F02D
:1022900004024260426802F004020192019A02685C
:1022A00042F008020260006800F008000190019806
:1022B000C020CDE9020140F600400491C4F20100C3
:1022C00002A9FEF755FD1E24204600210022FEF73C
:1022D000EBFE2046FEF7D6FE06B010BD80B590F8A6
:1022E0003E2090F83F3090F842E090F843C0042937
:1022F0000AD0B9B9012A4FF0010208BFBEF1010F9F
:1023000034D0104680BD00BF012B4FF0010208BF42
:10231000BCF1010FF5D1022180F83F1080F8431085
:1023200000681EE0012A4FF0010208BF012BE8D12E
:10233000BEF1010FE5D1BCF1010FE2D1022280F81C
:102340003E2080F83F2080F8422080F8432091B161
:102350000068016A21F001010162016A41F0010196
:10236000016210216FF0100209E000BF022180F825
:102370003E1080F84210006801216FF00102036AEC
:102380001A400262026A114301620168002241F0B0
:1023900001010160104680BD7047000010B5016862
:1023A00004460869800744BFC8685FEA807039D472
:1023B0000869400744BFC8685FEA40703ED40869B6
:1023C000000744BFC8685FEA007045D40869C006CA
:1023D00044BFC8685FEAC0604AD40869C0071CBF30
:1023E000C8685FEAC07051D10869000644BFC86878
:1023F0005FEA006052D40869400644BFC8685FEADB
:10240000406053D40869800646BFC8685FEA8060B0
:1024100010BD6FF0200220460A61BDE81040FFF7B2
:1024200029BC00BF6FF00200086101202077886995
:10243000800743D02046FFF7AFFF45E06FF0040070
:10244000086102202077886910F4407F40D0204640
:10245000FFF7A2FF42E000BF6FF008000861042010
:102460002077C86980073DD02046FFF795FF3FE001
:102470006FF01000086108202077C86910F4407FD1
:102480003AD02046FFF788FF3CE000BF6FF0010024
:102490000861204600F052FA2168A5E76FF080003D
:1024A00008612046FFF7E4FB2168A4E76FF04000D5
:1024B0000861204600F090FA2168A3E7204600F06A
:1024C00051F8204600F0CAF92168002020776FE714
:1024D000204600F047F8204600F0C0F921680020AF
:1024E00020776CE7204600F03DF8204600F0B6F972
:1024F00021680020207769E7204600F033F8204665
:1025000000F0ACF921680020207766E780B586B03E
:10251000014640F60000C4F20100096800F51052BF
:1025200091424FF00001CDE90411CDE9021101D033
:1025300006B080BD41F21801C4F202010A6842F0FF
:1025400004020A60096801F00401019101994FF445
:102550003061029102210391059102A9FEF708FC66
:1025600006B080BD7047000090F83C30012B04BFDE
:10257000022070474FEAB202032A00F2F1802DE9EF
:10258000F043DFE802F003A53B7500BF036842F6A5
:1025900000461D6A1A6AC4F2010622F001021A629C
:1025A0001A465C6852F818CFB3428E68D1F800E042
:1025B00025F0020545EA06050CD1CE68D1E905787B
:1025C00024F4407425F00C0526F004063C43354302
:1025D00044EA08042CF0730747EA0E075C609F6129
:1025E0004F6809695F631D629F6947F008079F6133
:1025F0009F6927F004079F61A6E000BF036842F6C9
:1026000000461D6A1A6AC4F2010622F480721A6238
:102610001A46D3F804C052F81CEFB3428E680C6817
:1026200025F4007545EA06250FD1CE68D1E9059855
:10263000360240F2FF4725F44065BE4335432CF493
:10264000405748EA090647EA061C2EF0730727435D
:10265000C3F804C0DF614F680969DF631D62DF6989
:1026600047F00807DF61DF6927F00407DF616BE0EF
:10267000036842F60047D3F820C01A6AC4F2010783
:1026800022F480521A621A465C6852F81C5FD1F834
:1026900000E08E68BB4204D14F6924F4804444EAD0
:1026A00087142CF4005747EA063725F4E64646EA35
:1026B0000E265C60DE614E6809691E641F62DF6978
:1026C00047F40067DF61DF6927F48067DF613AE084
:1026D000036842F600461D6A1A6AC4F2010622F037
:1026E00010021A621A46D3F804C052F8184FB342C7
:1026F0008E68D1F800E025F0200545EA06150FD1D7
:10270000CE68D1E905986FF0400725F0C00507EACB
:10271000061635432CF4406748EA090647EA860C5A
:1027200024F4E64444EA0E27C3F804C09F614F68CE
:1027300009699F631D629F6947F400679F619F69F4
:1027400027F480679F610902136819431160002113
:10275000BDE8F043002280F83C200846704700BFE7
:102760000121002280F83C2008467047002804BF61
:102770000120704710B590F83D1031B9002180F864
:102780003C10044600F068F82046022180F83D1015
:10279000016840F2FF740B68C4F2000442F6004C7A
:1027A000A142C4F2010C15DCB1F1804F1AD040F205
:1027B0000042C4F20002914214D0A14218DCB1F1EF
:1027C000804F1DD040F20042C4F20002914217D067
:1027D0001AE000BF614505D040F60002C4F20002D5
:1027E0009142EAD1826823F070031343A142E6DDEF
:1027F000614505D040F60002C4F20002914203D1C7
:10280000026923F440731343846923F08002D0F8F3
:1028100004E0C368224361450A60CB62C1F828E046
:1028200002D14269CCF8302001224A6180F846206A
:1028300080F83E2080F83F2080F8402080F841203A
:1028400080F8422080F8432080F8442080F845201A
:1028500080F83D20002010BD704700007047000048
:10286000C1B1042908D0082914BF41224022825C4A
:10287000012A05D016E000BF3F22825C012A11D157
:102880000222082910D0042914BF80F8412080F8C2
:102890003F200BE090F83E20012A03D1022280F86D
:1028A0003E2003E00120704780F84020006801F0DE
:1028B0001F010122036A8A4023EA02010162036ABE
:1028C00042F64441C4F201011A43A1F14403984283
:1028D00002620FD040F2FF71C4F20001884213DCA3
:1028E000B0F1804F1CD040F20041C4F20001884298
:1028F00016D01CE00A6842F400420A6040F2FF7100
:10290000C4F200018842EBDD42F60041C4F201014D
:10291000884205D040F60001C4F20001884206D189
:10292000816801F00701062904BF00207047016893
:1029300041F00101016000207047000042F2503177
:10294000C2F20001884218BF70472DE9F04182B001
:1029500040F2F808C2F20008D8F800000130C8F8C8
:1029600000000DF1060000F0EFFC02F0DBFE40F28B
:102970005210C2F20000B0F90000FDF7D7FC40F29F
:10298000D801C2F200014968FDF768FC42F2E0316B
:10299000C2F200010D680446696A08B2FDF7C6FC80
:1029A000002742F298316F62C2F200010E680546BC
:1029B000716A08B24042FDF7B9FC77620346BDF880
:1029C000060021462A46C8F8007003F007FA02B054
:1029D000BDE8F041704700007047000070470000FC
:1029E00070470000B0B582B001680A68CC684B69D6
:1029F00002F02F05202D04F0200505D125B102B0ED
:102A0000BDE8B04000F092BE5FEA027C1EBF03F05A
:102A1000010E04F4907313EB0E0341D1036BD50642
:102A200018D5012B16D114F0100313D000220192F7
:102A30000A6801924A680192019A496949064BD491
:102A4000818DC28DC38D002B18BF914240F0F4815F
:102A500002B0B0BD13062DD514F080032AD090F833
:102A60004120212AF4D18268B2F5805F03D1026946
:102A7000002A00F06782026A531C036212784A60DF
:102A8000C28C013A1304C284E2D1C86820F08000ED
:102A9000C860C86840F04000C86002B0B0BD00BF68
:102AA000D30718BF14F4807340F0D080530700F1AF
:102AB000D380D8E05206CBD514F04002C8D0CA6803
:102AC00022F04002CA60202180F8411002B0BDE827
:102AD000B04000F035BC00BFC16B0A68526893B2C9
:102AE000002BB5D0858DAB42B2D2C2858969202931
:102AF00000F0A180016851E8031F026821F4807191
:102B000042E80313DBB1016851E8031F026821F4B6
:102B1000807142E8031393B1016851E8031F026812
:102B200021F4807142E803134BB1016851E8031F9F
:102B3000026821F4807142E80313002BDAD10168A6
:102B400051E8051F026821F0010142E80513C3B3F3
:102B5000016851E8051F026821F0010142E80513F0
:102B60007BB3016851E8051F026821F0010142E8CA
:102B7000051333B3016851E8051F026821F0010114
:102B800042E80513002BDAD11BE000BF016851E8D1
:102B9000051F026821F0400142E80513DBB101681E
:102BA00051E8051F026821F0400142E8051393B186
:102BB000016851E8051F026821F0400142E8051351
:102BC0004BB1016851E8051F026821F0400142E85D
:102BD0000513002BDAD1202180F842100021016377
:102BE000016851E8031F026821F0100142E8031355
:102BF000DBB1016851E8031F026821F0100142E8CF
:102C0000031393B1016851E8031F026821F010011A
:102C100042E803134BB1016851E8031F026821F039
:102C2000100142E80313002BDAD1C16B04460846B9
:102C3000FDF7A8FE204602214163818DC28D891ACD
:102C400089B202B0BDE8B040FFF7C8BE436C43F0A4
:102C500001034364530706D5BEF1000F03D0436C54
:102C600043F002034364930706D5BEF1000F03D07F
:102C7000436C43F004034364BCF1000F06D55EEAE5
:102C8000050303D0436C43F008034364436C002BFB
:102C90003FF4DEAE920605D525B1044600F046FDB0
:102CA000216820464969426C01F0400102F00802A7
:102CB000891800F0B98000BF016851E8031F02685D
:102CC00021F4907142E80313BBB3016851E8031F7C
:102CD000026821F4907142E8031373B3016851E86C
:102CE000031F026821F4907142E803132BB30168BB
:102CF00051E8031F026821F4907142E80313002B8E
:102D0000DAD11AE0016851E8051F026821F00101DB
:102D100042E80513DBB1016851E8051F026821F0A4
:102D2000010142E8051393B1016851E8051F0268EB
:102D300021F0010142E805134BB1016851E8051F7C
:102D4000026821F0010142E80513002BDAD1016B82
:102D5000012924D1016851E8031F026821F0100104
:102D600042E80313DBB1016851E8031F026821F058
:102D7000100142E8031393B1016851E8031F026890
:102D800021F0100142E803134BB1016851E8031F21
:102D9000026821F0100142E80313002BDAD1202150
:102DA00080F842100021016301684969490640F139
:102DB000C380016851E8051F026821F0400142E824
:102DC0000513DBB1016851E8051F026821F04001DD
:102DD00042E8051393B1016851E8051F026821F02C
:102DE000400142E805134BB1016851E8051F026834
:102DF00021F0400142E80513002BDAD1C16B002914
:102E000000F09A8043F22172C0F6000204460846A0
:102E10004A63FDF7DBFD00283FF41AAEE06B416B1F
:102E200002B0BDE8B04008470446FFF7D9FD0020D6
:102E3000606402B0B0BD00BF891A00BF026852E8EA
:102E4000032F036822F4907243E80325BDB30268A0
:102E500052E8032F036822F4907243E8032575B308
:102E6000026852E8032F036822F4907243E80325B6
:102E70002DB3026852E8032F036822F4907243E8EE
:102E80000325002DDAD11AE0026852E8052F036805
:102E900022F0010243E80525DDB1026852E8052F62
:102EA000036822F0010243E8052595B1026852E863
:102EB000052F036822F0010243E805254DB10268A1
:102EC00052E8052F036822F0010243E80525002D92
:102ED000DAD1202280F8422000220263026852E800
:102EE000032F036822F0100243E80325DDB10268D6
:102EF00052E8032F036822F0100243E8032595B13E
:102F0000026852E8032F036822F0100243E8032509
:102F10004DB1026852E8032F036822F0100243E823
:102F20000325002DDAD1022289B2426302B0BDE846
:102F3000B040FFF753BD00BF02B0BDE8B040FFF79F
:102F40004FBD00BF026A32F8023B6FF35F234B6054
:102F5000026295E5002804BF0120704710B50446C1
:102F600090F8410028B9002084F84000204600F085
:102F700063F8242084F841002068D4E90212C36871
:102F800023F40053C360036923F440531A430261DE
:102F9000D4E904231143C268194341F20C639A43F4
:102FA0001143C1604169A26921F44071114343F6A4
:102FB0000002C4F201029042416103D0FEF78EF993
:102FC00002E000BFFEF79EF9D4E90023192148432F
:102FD0009900B0FBF1F048F21F5CC5F2EB1CA0FBBE
:102FE0000C314FF69C734909C0F6FF7301FB0300D7
:102FF000322303EB0010A0FB0C03F02000EA531077
:1030000000EB0110C3F343110844906010692021C4
:1030100020F490401061506920F02A005061D0687F
:1030200040F40050D0600020606484F8411084F8BF
:103030004210606310BD000070B586B040F60044D9
:10304000C4F201040068A4F54441002688420596B4
:10305000CDE90366029601D006B070BD41F21800BA
:10306000C4F20200416802AD41F480214160416830
:1030700001F4802101910199016841F0080101608A
:103080000068294600F00800019001984FF4806024
:10309000029002200390032005902046FDF768FE71
:1030A0004FF40060CDE90206204629460496FDF75C
:1030B0005FFE272000210022FDF7F6FF2720FDF705
:1030C000E1FF06B070BD0000704700002DE9F0433D
:1030D00081B0044690F84100202809D18846002993
:1030E0004FF0010018BF002A06D101B0BDE8F083FF
:1030F000022001B0BDE8F0830020606421201D465D
:1031000084F841001646FDF747FFA684E684A168CF
:103110000646B1F5805F03D12069002800F0948055
:1031200047464FF00008E18C2068002900F09280AB
:1031300005F101090BE000BF47B317F8011B41601F
:10314000E18C0139E184E18C002900F08380016881
:103150000906F1D4B9F1000F0AD0EDB1FDF71CFF5B
:10316000801BA84218D8206801680906F6D5E3E755
:1031700001680906E0D4016809065CBF01685FEADE
:103180000161D9D401680906F2D5D5E738F8021BE8
:1031900000276FF35F21D2E7206850E8030F216812
:1031A00020F4D07041E80302BAB3206850E8030F5E
:1031B000216820F4D07041E8030272B3206850E81F
:1031C000030F216820F4D07041E803022AB320687D
:1031D00050E8030F216820F4D07041E80302002A70
:1031E000DAD11AE0206850E8050F216820F00100CC
:1031F00041E80502DAB1206850E8050F216820F0A7
:10320000010041E8050292B1206850E8050F2168ED
:1032100020F0010041E805024AB1206850E8050F9E
:10322000216820F0010041E80502002ADAD12020BF
:1032300084F8410084F84200002084F84000032014
:1032400001B0BDE8F08300BF0027E18C20680029B1
:103250007FF46EAF016849060FD4F5B1691C17D130
:103260000168490609D4016849065CBF01685FEA44
:10327000416102D401684906F2D5202084F841005A
:10328000002001B0BDE8F083206800684006F4D457
:10329000FDF782FE801BA842F6D9206850E8030F94
:1032A000216820F4D07041E80302EAB3206850E8B6
:1032B000030F216820F4D07041E80302A2B3206814
:1032C00050E8030F216820F4D07041E803025AB39C
:1032D000206850E8030F216820F4D07041E8030211
:1032E000002ADAD120E000BF206850E8050F2168ED
:1032F00020F0010041E80502002A98D0206850E83B
:10330000050F216820F0010041E80502002A3FF482
:103310008EAF206850E8050F216820F0010041E8D9
:103320000502002A3FF483AF206850E8050F2168AA
:1033300020F0010041E80502002AD5D177E700001E
:1033400070470000FEE700002DE9F04F81B040F625
:10335000004541F20407C4F2010540F2E0094DF6D0
:10336000836A8046CEF200070024A5F58066C2F28B
:103370000009C4F21B3A4FF0010B048003E000BFC8
:1033800001340C2C44D004F0010230464FF40041CB
:10339000FDF7FCFDC4F3400228460821FDF7F6FDC9
:1033A000C4F3800228464FF48071FDF7EFFD002240
:1033B00028464FF40071072C88BF0122FDF7E6FD77
:1033C0003868D9F80010A1FB0A12910C3A68121A59
:1033D0008A420BD23A68121A8A4207D23A68121A03
:1033E0008A4203D23A68121A8A42EFD330464FF427
:1033F0008051FDF7C5FD0128C2D1C4F10B00B8F81A
:1034000000100BFA00F00844A8F80000B8E700BF6D
:1034100001B0BDE8F08F0000FEE70000FEE700000D
:10342000704700007047000042F2B020C2F2000076
:10343000FEF77EB9406A0021C187C186FEF776B9E2
:10344000406A01684A6822F003024A60416D41F017
:1034500010014165012180F85110FEF767B90000A5
:10346000406AFEF7BFBA0000406AFEF7D7BB000013
:10347000406AFEF7E5BB0000B0B5446A0546FDF7BB
:103480008BFD29680968890644D403462068A16831
:10349000426822F02002426041B96268B2F5827F40
:1034A00004D1416821F0030141601BE0426822F031
:1034B000010242606268B2F5827F13D1B1F5004F1C
:1034C00002D0B1F5806F0DD10268B1F5806F22F0A6
:1034D0004002026006D120460121642200F096F8E5
:1034E00030B90BE020468021642200F08FF828B12B
:1034F000606D40F020006065202060650020E0875E
:10350000012084F85100606D20B12046BDE8B04034
:10351000FEF70CB92046BDE8B040FEF761BA0000E6
:10352000B0B582B0446A0546FDF736FD29680968E2
:1035300089062FD4034620686422416821F02001C7
:103540004160416821F0020141602046802100F085
:103550005DF838B1606D40F020006065606D40F04E
:1035600020006065A06838B9002001902068C1681B
:1035700001918068019001980020E086012084F884
:103580005100606D30B1204602B0BDE8B040FEF79A
:10359000CDB800BF204602B0BDE8B040FEF72EBB5C
:1035A000B0B5446A0546FDF7F7FC29680968890645
:1035B00026D4034620686422416821F0200141603E
:1035C0002046802100F022F838B1606D40F02000E4
:1035D0006065606D40F0200060652068416821F002
:1035E000030141600020E086E087012084F851005B
:1035F000606D28B12046BDE8B040FEF797B800BF27
:103600002046BDE8B040FEF70BBB00002DE9F041BD
:1036100082B01E4690460D460446FDF7BDFC301AAA
:1036200000EB0807FDF7B8FC40F2E001C2F2000130
:103630000968C1F3CB317943019121688A682A4036
:10364000AA4227D1064618F101001FD0FDF7A4FCBD
:10365000801BB84222D2019801990028A1F10101F2
:1036600001912168896808BF074601EA0500A84260
:10367000ECD00FE088682840A8420BD18868284029
:10368000A84207D188682840A84203D1886828400A
:10369000A842EFD0002002B0BDE8F081D4E90001DB
:1036A0004268B1F5827F22F0E00242600AD1A1684F
:1036B000B1F5004F02D0B1F5806F03D1016821F060
:1036C00040010160A16AB1F5005F07D1016821F4F2
:1036D00000510160016841F400510160012084F84B
:1036E0005100002084F85000032002B0BDE8F081B2
:1036F00070470000FDF756BC7047000042F25030A2
:10370000C2F20000FEF74ABE42F29830C2F2000058
:10371000FEF744BE42F2E030C2F20000FEF73EBEC9
:10372000406A0021C185C184FFF75AB981B090F881
:103730004210222921D183680246B3F5805F09D166
:1037400052F8281F52F8183C002B63D003685B68BE
:103750000AE000BF52F8281F13B90369002BF5D007
:1037600003685B6803F07F030B701168013111601F
:10377000C18D01390A04C18502D001B0704700BF74
:103780000168CA6822F02002CA60CA6822F4807206
:10379000CA604A6922F001024A61202180F8421081
:1037A00000214163026B012A3CD10163016851E8A9
:1037B000031F026821F0100142E80313DBB1016826
:1037C00051E8031F026821F0100142E8031393B18E
:1037D000016851E8031F026821F0100142E8031359
:1037E0004BB1016851E8031F026821F0100142E863
:1037F0000313002BDAD101680A68D20606D500222D
:1038000000920A680092496800910099818D01B088
:10381000FFF7E4B8026852686FF35F2221F8022BC9
:103820008162A5E701B0FFF74FBC000040F2FC0049
:10383000C2F20000FFF7D6B8FEE700002DE9F04322
:103840008BB00D46014601A8144600F08FFE18B15A
:103850000BB0BDE8F08300BFDDE909170DF10409E5
:1038600099E80803DDE9046EDDE906C2C5E9081739
:10387000089985E80803C5E9036EC5E905C2E96151
:10388000DDE905ECDDE90197DDE90365DDE9092105
:10389000DDE90783C4E90821C4E90097C4E90265AA
:1038A000C4E904ECC4E906830BB0BDE8F083000072
:1038B00010B5D8B1816BC9B1C16BB9B1016CA9B1F7
:1038C000242101700321C2F2000181644169427A1E
:1038D0000029B2FA82F14FEA5111C1720AD00446AE
:1038E00000F028FF80B140B210BD00BFFF2040B201
:1038F00010BD00BF46F69C71C0F600014161044650
:1039000000F018FF0028EED148F69C7148F6CF72FF
:10391000C0F60001C0F600022046C0E9081241F2DC
:10392000081121830721A17640F2E401C2F20001CF
:10393000E165082184F86010BDE8104000F0B8BBD4
:103940002DE9F041002818BF002903D14FF0FF30C6
:10395000BDE8F0814EF6FC52CEF20002136841F24F
:10396000040743F08073CEF20007136057F8042C6D
:1039700040F2441542F0010247F8042C0022C2F242
:1039800000053A60696045F2652143F6D926C0F624
:10399000000145F26D33C0F6000600F1380C40F628
:1039A0000008C0F600038CE84A004FF4006140F6BE
:1039B0002826C4F2010842724260C1810446426175
:1039C000C2F2000680203070404610212A70FDF7B8
:1039D000DDFA686840F22822C2F200023146022372
:1039E000FEF702F840B9287830B9287820B928784D
:1039F00010B928780028F6D0404610210122FDF7A2
:103A0000C5FA40F2E001C2F20001386809684DF6DB
:103A10008362C4F21B32A1FB0212910C4FF47A7242
:103A2000514300BF3A68121A8A420BD23A68121AFE
:103A30008A4207D23A68121A8A4203D23A68121AA4
:103A40008A42EFD32046BDE8F041FFF731BF0000C6
:103A5000B0B58EB0044600208DF8040001A8012105
:103A6000224600F0CDFB08B10EB0B0BD40F20C20F4
:103A7000C0F20120CDF8060001A80121224601254F
:103A800001F098F80028EFD101A8012122468DF815
:103A9000045000F0B5FB0028E6D14FF40370ADF8F8
:103AA00006004FF48040ADF80A0001208DF80800B0
:103AB00001A80121224601F07DF80028D4D14FF45D
:103AC0008070ADF802000DF102000221224600F0E4
:103AD000ABFE0EB0B0BD000041F2040140F2E003C5
:103AE000CEF20001C2F200030A68D3F800C04DF61E
:103AF0008363C4F21B33ACFB033C4FEA9C43584343
:103B000009E000BF0B689B1A834228BF70470B680F
:103B10009B1A834207D20B689B1A834203D20B681D
:103B20009B1A8342EED370472DE9F04FA5B00346B0
:103B30008DF8130000294FF0FF0018BF002A03D1B1
:103B400040B225B0BDE8F08F107E984216D9906B38
:103B5000D0B1D76BC7B1106CB0B192F847000291E9
:103B60000128039216D153680DF113012F20012271
:103B7000B847039A90724FF4E17014E0F62040B217
:103B800025B0BDE8F08F00BFFF2040B225B0BDE8F2
:103B9000F08F00BF53680DF113012F200122B847A9
:103BA000039A907202205168126C9047039B987A96
:103BB00020B1FE2040B225B0BDE8F08FD8890F2893
:103BC00000F21A81DDF808C0C1071CBF0138D88196
:103BD0000CF10100302200244FF0100805AF4FF027
:103BE000000A0090B3F80EB05FFA88F65FFA8AF91F
:103BF000B3450CEB09012FD99D6B002D5AD0D86B22
:103C0000002857D0186C002854D0587A0191002809
:103C10001046D97A08BF40F080005B6893468A1945
:103C2000C0B23946A84703998872039890F8472094
:103C30000398012A41680398036C4FF0020008BF03
:103C40004FF4E1709847039B987A002844D0DDF840
:103C500008C0FE2091E000BF9E6B6EB3D86B58B3D6
:103C6000186C48B3587A0D4600281046D97A08BF18
:103C700040F080005B68904601EB0B02C0B2394611
:103C8000B04703998872039890F847200398012A57
:103C900041680398036C4FF0020008BF4FF4E170D5
:103CA0009847039B987A08B3DDF808C0FE20424687
:103CB00005AF02E0FF2004E0FF2093F80E80C2442D
:103CC000424400287FF43CAF4444E1B21029C4F1DF
:103CD00010087FF487AF33E7DDF808C05FEA0860BB
:103CE0004AD0042E0ED200202BE000BFDDF808C021
:103CF000BBF1000F05AF7BD0AE46BBF1040F3FD246
:103D000000205DE0009806F0FC0E00EB09010020A9
:103D100005AADD7A0F1815442D5C07F8015CDD7AE1
:103D2000154405446D780D54DD7A15440544AD788D
:103D30007D70DD7A15440544ED7804308645BD700C
:103D4000E7D116F0030117D0DA7A05AD0244AA5C78
:103D5000019E012932540BD0DA7A471C3A44AA5CFE
:103D60000229F25504D0D97A02300144695C3154F9
:103D700000205A462F46A4E700205A4605AFA0E788
:103D800047F6FC700BEA0002009800EB09060020E1
:103D9000D97A35183944095C05F8011CD97A3944B7
:103DA000014449783154D97A394401448978697099
:103DB000D97A39440144C97804308242A970E7D1E4
:103DC0001BF0030114D0DA7A01290244BA5C0EF820
:103DD00000200DD0DA7A461C3244BA5C02290EF873
:103DE000062005D0D97A02300144795C0EF8001023
:103DF0000020424661E700BF02993020102200F007
:103E000085F940B225B0BDE8F08F000022B32DE95E
:103E1000F04FA7B08146906B9046002800F03081AB
:103E2000D8F83C00002800F03181B9F1000F4FF0C4
:103E3000FF0000F026818A46D8F84010002900F0E3
:103E40002081BAF1000F00F0278198F847404FF029
:103E5000000B002002940CE0FF2040B2704700BF2E
:103E60000120414600F0DAFD0BF1010BD34500F0D3
:103E700008810BEB8B0519F82510042905D3012CBB
:103E800003D10020414600F0C9FD0106ECD109EB49
:103E9000850E9EF80000092834D0292840F00281C0
:103EA000B8F8480000218006CDE90511049103917E
:103EB00054D498F81A1000294ED0D8F8240001EBF9
:103EC0004101A1F1090C8B1FCD1E0027C25D292ADB
:103ED00000F0AA80BD423CD0C619F278292A00F031
:103EE000A780BB4235D0B279292A00F0A580BC4515
:103EF0002FD0727A292A00F0A3800C37B942E5D17D
:103F000027E000BF98F81A100020CDE909000890BA
:103F1000079009B3D8F8240001EB4101A1F109028F
:103F20008B1FCD1E0027C65D092E49D0BD4210D083
:103F3000C619F478092C47D0BB420AD0B479092CB1
:103F400046D0BA4205D0747A092C45D00C37B94214
:103F5000E9D1029CF8208BE0F82089E0D8F838708D
:103F600007AC4FB3D8F83C0030B3D8F8400018B3D2
:103F700098F80B0098F80910D8F80430421C002972
:103F80004FF01E002146754608BF9E20B84788F8AE
:103F90000A0098F84700D8F80410D8F84020012803
:103FA0004FF0020008BF4FF4E170904798F80A0004
:103FB00080B3029CFE205BE0029CFF2058E000BF23
:103FC000CDF804E0C1190BE0CDF804E0F11C07E0E6
:103FD000CDF804E0B11D03E006F10901CDF804E0DD
:103FE00048788D7807A94246FFF79EFD029C00287D
:103FF0003ED107A8405D019A00F001011171C0F3A4
:1040000040015171C0F38001C0F3C2009171D071C1
:104010002DE000BF98F80B00205C029C410648BFD1
:104020008038A88023E000BFCDF804E0C1190BE080
:10403000CDF804E0F11C07E0CDF804E0B11D03E089
:1040400006F10901CDF804E048788D7803A94246CD
:10405000FFF76AFD029C58B903A8405D410652BFB4
:1040600000F03F004FF680710843019988800020DE
:10407000010606D1012C3FF4F3AE0020F4E600BFA8
:10408000FF2027B0BDE8F04F40B27047FF2027B0B7
:10409000BDE8F04F40B27047002027B0BDE8F04FB8
:1040A00040B27047F82027B0BDE8F04F40B27047EB
:1040B000B0F8481089075EBFF82040B27047816BA6
:1040C000B1B1C16BA1B1016C91B110B586B029211C
:1040D0008DF8041001A90246084601211446FFF795
:1040E00095FE48B106B0BDE8104040B2704700BF31
:1040F000FF2040B2704700BFBDF80800A4F844009C
:10410000002006B0BDE8104040B270472DE9F041F4
:10411000A0B05BB39D6B4DB3DF6B3FB34FF0FF04BB
:10412000F9B11F6CEFB18846597A6C46002908BF77
:1041300040F08000D97AD3F804C017460A442146DB
:104140001E466346A84796F847207168336CB072E4
:104150000220012A08BF4FF4E1709847B17A59B1A3
:10416000FE2460B220B0BDE8F08100BFFF2460B241
:1041700020B0BDE8F08100BFE7B33046C446042F4D
:1041800007F0030202D200231EE000BF27F0030164
:104190000CF10105002300BFC77AEE182744FF5C2D
:1041A00006F8017CC77A27441F447F78EF54C77A0A
:1041B00027441F44BF787770C77A27441F44FF788D
:1041C00004339942B770E7D1A2B1C17A012A1944E8
:1041D000615C0CF803100DD0C17A5F1C3944615C3E
:1041E000022A0CF8071005D0C07A991C0844205CFC
:1041F0000CF80100002460B220B0BDE8F08100009E
:104200002DE9F04FA3B0EAB11446926B002A00F0FA
:104210008981E26B002A00F08581024600284FF078
:10422000FF0010D0236C73B194F847A0002900F070
:104230007F81104600250DF10C0B4FF00009CDE9F0
:10424000012138E0FF2040B223B0BDE8F08F00BF6D
:10425000811948788D7859462246FFF765FC002879
:10426000F1D1681CC0B21BF805101BF80000AA1C95
:1042700060F30A21E81CA8F80210D1B2C0B21BF802
:1042800001101BF800002A1D60F30A21681DD2B23C
:10429000C0B21BF802201BF80000002560F30A22C0
:1042A000A8F80410A8F80620029809F10109814530
:1042B000019800F03D81342209FB02F1415C09FBC9
:1042C0000208032901D802290AD1BAF1010F07D146
:1042D0000020214600F0A2FB0028B4D198F800107D
:1042E00009294FF0F800AED8DFE801F00846B8061B
:1042F00006060606068C00BFA5E700BFA66B002ECB
:1043000000F01081E06B002800F00C81206C002888
:1043100000F00881E07A617A6368821C00294FF01E
:104320004000594608BFC020B047A07294F847002B
:104330006168226C01284FF0020008BF4FF4E17061
:104340009047A07A002840F00B81E07A0BEB000147
:104350001BF800004978C20988F80420C0F3021253
:1043600000F00F0088F8020001F0030088F8032035
:1043700088F8050098E700BFA66B002E00F0D280F9
:10438000E06B002800F0CE80206C002800F0CA808E
:10439000E07A617A6368821C00294FF04200594636
:1043A00008BFC220B047A07294F847006168226C31
:1043B00001284FF0020008BF4FF4E1709047A07A47
:1043C000002840F0CD80E07A0BEB00011BF80000E4
:1043D0004978C20988F80420C0F3801288F80720C1
:1043E000C0F3011200F00F0088F80200C1F3C00012
:1043F00088F8050001F0070088F8032088F8060017
:1044000052E700BF617ECDE905550029049503956B
:104410003FF419AF206A01EB4101A1F1090C8B1F98
:10442000CD1E0026825D092A3FF412AFB54200F08E
:104430008B808219D778092F6CD0B34200F084802A
:104440009779092F68D0B44500F07E80577A092FFC
:1044500064D00C36B142E5D176E000BFA66B002EE9
:1044600060D0E06B00285DD0206C00285AD0E07A44
:10447000617A6368421C00294FF06B00594608BFFF
:10448000EB20B047A07294F847006168226C0128C5
:104490004FF0020008BF4FF4E1709047A07A002867
:1044A0005ED1E07A1BF8001008F10200C1F3401160
:1044B0000170214601F0A2F900287FF4C4AEA66B7A
:1044C00086B3E06B70B3206C60B3E07A617A6368A6
:1044D000421C00294FF04400594608BFC420B04791
:1044E000A07294F847006168226C01284FF0020026
:1044F00008BF4FF4E1709047A07A88BBE07A1BF8C0
:104500000000010900F00F0088F8081088F8070083
:10451000CAE600BFD11C9CE6911D9AE602F1090192
:1045200097E600BFFF2040B223B0BDE8F08F00BF88
:10453000BAF1010F0ED10120214600F06FFA40B20E
:1045400023B0BDE8F08F00BFF82040B223B0BDE833
:10455000F08F00BF002040B223B0BDE8F08F00BF55
:10456000FE2040B223B0BDE8F08F000080B3F0B56C
:10457000A7B039B38E6B2EB3CA6B1AB30A6C0AB3E9
:104580000446C87A4F7A4B6807AD00F11802032041
:10459000002F0F46294608BF8320B04797F84720D1
:1045A00079683B6CB8720220012A08BF4FF4E170B1
:1045B0009847B87A80B1FE2027B0BDE8F04040B2FD
:1045C000704700BFFF2027B0BDE8F04040B2704701
:1045D000FF2040B2704700BFF87A1822291801ADB9
:1045E00028463E46FBF79EFD284621463A4600F007
:1045F00005F827B0BDE8F04040B27047002A00F04F
:104600009580936B002B00F09180D36B002B00F012
:104610008D8000294FF0FF0300F089802DE9F047DD
:1046200083B0166C002E7CD043786F460B7683786F
:104630004B76C3788B760379CB7643790B77837986
:104640004B77C3798B77037ACB77B0F8093092F840
:1046500028800B80B0F80B60ADF800304E80B0F8C9
:104660000D50ADF80260ADF8045092F82B9092F81E
:1046700029E037F8185092F82AC0B9F1000F18BF96
:104680006D4292F82CA037F81E600D80BAF1000F31
:1046900018BF76424E8092F82D6037F81C70002EBD
:1046A00018BF7F428F80B0F90F70B2F944208F811C
:1046B000B0F81130B9F1000FCB81B0F91340ADF86B
:1046C000083004FB02F24FEAE27502EBD55242F3E6
:1046D0004F22A7EB020202F30F02ADF80620ADF85D
:1046E0000A400DF1060232F8183018BF5B428B8188
:1046F00032F81E30BAF1000F18BF5B4232F81C20AE
:10470000CB81002E18BF52420A82837DC77D427D35
:104710001B0243EA07431A440A620078002381F827
:10472000240003B0BDE8F04758B27047FF2358B2E9
:1047300070470000002847D070B5A0B0846B002CF3
:1047400064D0C16B002961D0016C00295ED0417A30
:10475000012280F84720D9B3C16B002956D0016CE3
:10476000002953D0417AC27AB1FA81F149094368EC
:10477000C9016D460132064608462946A04796F80B
:1047800047207168336CB0720220012A08BF4FF4D1
:10479000E1709847B17A79BBF17A3278695C30463A
:1047A000914239D1102101730121C17640F20011EB
:1047B000C0F2020181620021818500F0EBFC20B093
:1047C000BDE8704040B27047FF2040B2704700BF64
:1047D000C17A43684A1C694605468020A04795F87F
:1047E000472069682B6CA8720220012A08BF4FF489
:1047F000E1709847A97A29B1FE2020B0BDE8704049
:1048000040B27047AC6B2846002CA5D1FF2020B0E9
:10481000BDE8704040B270470170FD2020B0BDE897
:10482000704040B2704700002DE9F047A2B0CAB115
:10483000D2F838C0BCF1000F00F0E080D36B002B41
:1048400000F0DC804FF0FF0E70B1136C63B14FF0DD
:1048500000094FF0000A002900F0788000244FF092
:10486000000E13E04FF0FF0E4FFA8EF022B0BDE8BD
:10487000F08700BF4FF0F80E22E000BF013449EA94
:1048800003098C424AEA050A00F05C80065D202E8E
:104890001ED801250023DFE806F01713431B1B1B5E
:1048A0001B1B1B1B1B1B1B1B1B1B1B1B1B1B1B1B58
:1048B0001B1B1B1B1B1B1B1B1B1B1100DEE700BF55
:1048C00000250223DAE700BF00250123D6E700BF59
:1048D00001348C4203D12DE00134A1422AD0035D82
:1048E000202BF9D8DFE803F016141A121212121254
:1048F0001212121212121212121212121212121298
:104900001212121212121212200000BFE4E700BFAE
:10491000B0E700BF4FF0F80ED6E700BF4FF0F80E3B
:1049200000250423AAE700BF012500234FF0F80E5D
:10493000A4E700BF4FF0F80E4FFA8EF022B0BDE8AA
:10494000F08700BFBEF1000F7FF48EAFD07A517AAE
:10495000441C53680DF108087D2000294146154686
:10496000224608BFFD20E04795F8472069682B6C78
:10497000A8720220012A08BF4FF4E1709847A87A74
:1049800030B14FF0FE0E4FFA8EF022B0BDE8F08746
:1049900009F007000AF00101084337D0E87A99FAD4
:1049A000A9F118F80000490FAB6B6AF3C3012A465E
:1049B00008438DF807000BB3D76BFFB1106CE8B15B
:1049C000536892F847400DF107017D2015460122FA
:1049D000B84769682A6CA8720220012C08BF4FF4FE
:1049E000E170904795F80AE0BEF1000F18BF4FF054
:1049F000FE0E4FFA8EF022B0BDE8F0874FF0FF0EAA
:104A00004FFA8EF022B0BDE8F08700BF4FF0000EE5
:104A10004FFA8EF022B0BDE8F087000071B3F0B518
:104A2000A1B08D6B25B3CA6B12B30A6C02B30646F4
:104A3000C87A4F7A4B6801AC421C7C20002F0F468D
:104A4000214608BFFC20A84797F8472079683B6CAF
:104A5000B8720220012A08BF4FF4E1709847B87A73
:104A600080B1FE2021B0BDE8F04040B2704700BFE9
:104A7000FF2021B0BDE8F04040B27047FF2040B2B7
:104A8000704700BFF87ABB6B205C06F0010100F0B4
:104A9000FE003A4608448DF804002BB3D66B1EB3D3
:104AA000106C08B3536892F8474001A97C20154662
:104AB0000122B04769682A6CA8720220012C08BF45
:104AC0004FF4E17090479DF8040000F00101A87ACE
:104AD00085F84710002818BF6FF00C0021B0BDE822
:104AE000F04040B2704700BFF32021B0BDE8F04075
:104AF00040B2704793B32DE9F04381B00646986BFE
:104B00001C4678B3E76B9FB389464FF0FF0051B363
:104B1000216C41B3607A94F84710002808BF06F072
:104B20007F0601292AD192B3C2F10008002700BFF5
:104B30006368E56BF01909EB0701C0B20122A847D1
:104B40006168226CA0724FF4E1709047A07AF0B9CE
:104B500008EB070001370130EAD118E0FF2040B22E
:104B6000704700BFFF2001B0BDE8F04340B270477E
:104B7000FF2001B0BDE8F04340B2704763683046A3
:104B80004946B8476168226CA072022090477C2E8B
:104B900005D199F8000000F0010084F84700A07AE0
:104BA000002818BF6FF0010001B0BDE8F04340B22B
:104BB000704700002DE9F04FA5B0002A00F0C08238
:104BC0001446926B002A00F0B582E26B002A00F0D6
:104BD000B18200284FF0FF0200F0B382236C002B5B
:104BE00000F0AF8294F84780002900F0AF820DF109
:104BF000120A0AF101020092002634254FF0000942
:104C0000CDE90201B8F1010F09D100202146FFF7DB
:104C100005FF039902460298002A40F0928209FBA0
:104C200005F2835CF822092B00F28B8209FB050B4D
:104C3000DFE813F00A0010005200870287028702A3
:104C40008702870287021A000BF10200214601F059
:104C5000E3F904E00BF10200214601F0F7FA0399B1
:104C600002460298CEE100BF637ECDE90766002BC5
:104C70000696059600F0C581226A03EB4303CDF842
:104C80000480A3F1090CA3F1060EA3F1030A002688
:104C9000955D092D00F03881B24515D0971997F828
:104CA0000380B8F1090F00F03181B6450CD0BD7911
:104CB000092D00F02D81B44506D07D7A092D00F034
:104CC00029810C36B342E3D1DDF80480F8220DF1DE
:104CD000120A002695E100BF9BF8070060B10C287E
:104CE00005AD15D30B208BF80700207A40F00200A9
:104CF0002072A76B87B91DE201208BF80700207A8C
:104D000040F0010020729BF807000C2805ADE9D2A5
:104D1000A76B002F00F00E82E06B002800F00A82E3
:104D2000206C002800F00682E07A617A6368421CF9
:104D300000294FF06B00294608BFEB20B847A0724E
:104D400094F847006168226C01284FF0020008BF08
:104D50004FF4E1709047A07A002840F00F82E07A8B
:104D60009BF80210285CA26B00F0DF0061F3451095
:104D7000002A8DF8120000F0DD81E76B002F00F0B3
:104D8000D981206C002800F0D581636894F84750E1
:104D90006B2051460122B8476168226CA072022044
:104DA000012D08BF4FF4E1709047A07A002840F031
:104DB000E581A76B05AD002F00F0BC81E06B0028FA
:104DC00000F0B881206C002800F0B481E07A617AAC
:104DD0006368821C00294FF04B00294608BFCB2096
:104DE000B847A07294F847006168226C01284FF020
:104DF000020008BF4FF4E1709047A07A002840F00D
:104E0000BD81E07A9BF80910285A9BF8053000F024
:104E1000010242EA41018DF81210302101EA10200E
:104E20009BF803109BF804209BF8067040EAC11021
:104E300063F3830062F3861007F003010844002542
:104E40008DF813000AE000BF6168226C42F2107016
:104E50009047142D05F1010580F08481A76B002F88
:104E6000F2D0E06B0028EFD0206C0028ECD0E07A84
:104E7000617A63680DF1140A421C00294FF00300A7
:104E8000514608BF8320B847A07294F84700616874
:104E9000226C01284FF0020008BF4FF4E1709047E8
:104EA000A07A0028D0D1E07A1AF800004007CBD4CD
:104EB000A06B002800F09080E76B0DF1120A002F24
:104EC00000F08880206C002800F0848094F847006F
:104ED000012840F0A1806368E76B4B205146012216
:104EE000B8476168226CA0724FF4E1709047A57AD0
:104EF000002D40F09D806368E76B00994C200122F3
:104F0000B8474FF4E1758DE0911905E0F91C03E015
:104F1000B91D01E007F109014878DDF804808D78BA
:104F200005A922460DF1120A0026FEF7FDFD0246F4
:104F30000028DDE9020164D105F0FE020DF1140C38
:104F40003CF80270BBF8026007F478476FF3DF2685
:104F50000CEB020337442CF802705A88BBF804703B
:104F600002F478426FF3DF273A445A809A88BBF8FC
:104F7000067002F478426FF3DF273A44EF079A8015
:104F800003D105AA2A4453795371A26B0026FAB1C2
:104F9000E76BEFB1226CDAB194F8470001281FD11A
:104FA00000256368E76B05F1300005A92944C0B20C
:104FB0000122B8476168226CA0724FF4E1709047FB
:104FC000A27AC2B90F2D05F10105EAD113E000BFA5
:104FD000FF2216E0FF252FE0FF250DF1120A2BE03E
:104FE0006368302005A91022B8476168226CA0725E
:104FF00002209047A27A002A18BF6FF00102DDE973
:1050000002013425130640F09C8009F1010989450D
:105010007FF4F8AD9AE000BF63684B20514602224E
:105020000225B8476168226CA07228469047A57A8D
:10503000002D18BF6FF001056168226C4FF47A7083
:1050400090472A46280640F07C809BF803003425D0
:105050000028DDE9020105D00122E2769BF8052057
:10506000227712E00BF10A014D2001222346E67659
:10507000FFF740FD6168226C07464FF47A70904755
:10508000DDE90201002F40F07F80A76B07B3E26BE0
:10509000F2B1226CE2B1E07A617A6368421C0029C5
:1050A0004FF0440005A908BFC420B847A07294F887
:1050B00047006168226C01284FF0020008BF4FF4DE
:1050C000E1709047A07A28B1DDE90201FE2299E75C
:1050D000FF2297E79BF807009BF80810A26B00F0EF
:1050E0000F0040EA01108DF81200CAB1E76BBFB1A2
:1050F000206CA8B1636894F84750442051460122BF
:10510000B8476168226CA0720220012D08BF4FF4DD
:10511000E1709047A57A002D18BF6FF0010500E0FF
:10512000FF256168226C4FF47A709047DDE9020137
:105130002A4666E7FF2250B225B0BDE8F08F00BFD7
:10514000FF2250B225B0BDE8F08F00BFB8F1010FCB
:105150000ED101202146FFF761FC024650B225B076
:10516000BDE8F08FF12250B225B0BDE8F08F00BF4E
:10517000002250B225B0BDE8F08F00BFFE2250B231
:1051800025B0BDE8F08F00BF3A4650B225B0BDE86B
:10519000F08F0000B0B5A2B0B62100288DF807103E
:1051A0005CD0816B002959D0C46B002C56D0016CA7
:1051B000002953D090F84710054601290AD14368C9
:1051C0000DF107017E200122A0472A46A8724FF464
:1051D000E17008E043680DF107017E200122A0473D
:1051E0002A46A87202205168126C90472A6C69689E
:1051F000AC7A4FF4FA609047012185F847101CB152
:10520000FE2040B222B0B0BD697A284651B100F00C
:1052100025F9002804BF0020C5E90C0040B222B0E7
:10522000B0BD00BF846BCCB1C16BB9B1016CA9B189
:10523000C17A43684A1C02A98020A04795F84720FC
:1052400069682B6CA8720220012A08BF4FF4E17034
:105250009847A97A0029D3D12846D8E7FF2040B241
:1052600022B0B0BD2DE9F04381B040F24417C2F244
:1052700000077B6843B1541CB4F5006F0AD9FE20C7
:1052800040B201B0BDE8F083FF2040B201B0BDE8FC
:10529000F08300BF40F6282640F6000540F080006D
:1052A000C2F20006C4F20105307000209146884623
:1052B0003870284610210022FBF768FEA3B240F2A6
:1052C00028247868C2F2000431462246FCF78CFBA1
:1052D00080B1284610210122FBF758FEFE2040B283
:1052E00001B0BDE8F08300BF387830B9387820B914
:1052F000387810B938780028F6D0284610210122D5
:10530000FBF744FEB9F1000F2BD0B9F1040F09F0FF
:10531000030001D2002113E029F0030208F1010388
:10532000002100BF67187E785D1805F8016CBE7813
:105330005E54FE7804316E703F798A42AF70F1D1CD
:1053400078B14A1CA35C012808F8013009D08B1CF5
:10535000E75C022808F8027003D00819C07808F842
:105360000300002040B201B0BDE8F0832DE9F04118
:1053700040F24415C2F200056B684BB102F101081E
:10538000B8F5805F08D9FE2568B2BDE8F08100BF9E
:10539000FF2568B2BDE8F08141F2282E00F07F03BE
:1053A000C2F2000E8EF8003072B3042A02F0030C31
:1053B00002D2002213E000BF22F003044B1C0022A3
:1053C0009E1816F8017C0EEB020047709F5C0432B9
:1053D000877077789442C770B6780671F0D1BCF1C7
:1053E000000F11D08C5C531CBCF1010F0EF8034070
:1053F0000AD0CC5C931CBCF1020F0EF8034003D022
:10540000C95C02EB0E00C17040F60004C4F2010456
:1054100000202870204610210022FBF7B7FD6868A5
:1054200041F228211FFA88F2C2F20001FCF774FB56
:1054300040B1FE250AE000BF287830B9287820B9AD
:10544000287810B928780028F6D0002520461021A9
:105450000122FBF79BFD68B2BDE8F081002863D014
:105460002DE9F043A1B00446806B002856D0E06BD4
:10547000002853D0206C002850D0B4F84A80B8F1EE
:10548000000F4BD0E68916F00100304618BF0138F6
:1054900002D181B2012904D886B2022E98BF022619
:1054A000E68100202146FFF7B9FA00285DD10020EF
:1054B000214600F071FE002857D1B8FBF6F000FB42
:1054C0001680010634D0C0B2A8EB0007E689380484
:1054D00010D000251FFA87F96069A9B20844B2B25A
:1054E000234601F03FF8E68918B93544A9B2494589
:1054F000F2D3D0BBB9B202204145E08128D20222CA
:105500006069B9B2084492B2234601F02BF800BB9F
:10551000E2891744B9B24145F2D31AE0FF2021B025
:10552000BDE8F04340B27047FF2040B2704700BF73
:10553000E28900266069B1B2084492B2234601F0C4
:1055400011F838B9E2891644B1B24145F2D301E00D
:105550000020E68148B90120214600F01DFE20B957
:1055600001202146FFF75AFA20B121B0BDE8F043EF
:1055700040B27047A06B38B3E06B28B3226C1AB30B
:10558000616844F620609047A76BEFB1E06BD8B13B
:10559000206CC8B1E07A617A636801AD421C2120B9
:1055A0000029294608BFA120B84794F84720616820
:1055B000236CA0720220012A08BF4FF4E1709847C3
:1055C000A07A88B1FE2100E0FF210020607401284C
:1055D000084618BF6FF00800002918BF084621B020
:1055E000BDE8F04340B27047E07A0021285C00F04B
:1055F0000F00EBE770B5044600200021CCF2B000AC
:1056000014F4006FCCF2900108BF4FF00040C4F3D7
:10561000C02514F4806608BF4FF00041FAF794FDEE
:105620000021CCF2600105EB962514F4007608BF4A
:105630004FF00041FAF788FD0021CCF2200105EB84
:10564000562514F4807608BF4FF00041FAF77CFD30
:105650004FF0004105EB162514F080061CBF002119
:10566000CBF6C071FAF770FD002E4FF03F4118BF26
:10567000013514F0400608BF4FF00041FAF764FD11
:105680004FF07C5105EB961514F0200608BF4FF043
:105690000041FAF759FD4FF07F5105EB561514F014
:1056A000100608BF4FF00041FAF74EFD0021C4F28A
:1056B000200105EB161514F0080608BF4FF0004155
:1056C000FAF742FD0021C4F2600105EBD60514F0A3
:1056D000040608BF4FF00041FAF736FD0021C4F27E
:1056E000900105EB960514F0020608BF4FF000414B
:1056F000FAF72AFD05EB5601CDB20021C4F2B00144
:1057000014F0010408BF4FF00041FAF71DFD61429B
:1057100040F20C02C9B2C2F2000292698D4208BF87
:10572000104670BD10B540F24C14C2F2000420784F
:10573000A0B140F2C01004F1100104F13802C2F22D
:105740000000FEF77BF878B14FF0000C4FF0000E30
:1057500000220023002000210FE000BF0020C4F839
:105760000200E08010BD00BFB4F844C0B4F846E0C9
:10577000B4F84820238A608AA18AA4F802C0A4F859
:1057800004E0E28023816081A18110BD10B540F268
:105790004C14C2F20004207810B1002010BD00BFEC
:1057A00040F2C01042F2B021C2F20000C2F2000189
:1057B000FEF7C6F8002818BF10BD40F2C010C2F2B4
:1057C0000000FEF745F900281CBF022010BD012093
:1057D0002070002010BD000080B582B0019040F222
:1057E000F800C2F20000043001A901224FF6FF7355
:1057F000FDF76CFC019802B080BD00002DE9F0417E
:10580000A0B0002966D08D6B002D63D0CA6B002A32
:1058100060D00A6C002A5DD08046C87A4E7A4B6808
:105820006C46821C4B20002E0E46214608BFCB2022
:10583000A84796F847207168336CB0720220012A9D
:1058400008BF4FF4E1709847B17A29B1FE2040B209
:1058500020B0BDE8F08100BFF17A30466218635C89
:1058600052785B0888F80730D30955B288F80130C0
:10587000C2F3801388F80230C2F3810302F00302FE
:10588000B5F1FF3F474688F8033088F804202BDD48
:10589000856BFDB1C26BEAB1026CDAB1477A43683D
:1058A0006C464A1C4D202146002F08BFCD20A8473A
:1058B00096F847207168336CB0720220012A08BF45
:1058C0004FF4E1709847B07A50B1FE2040B220B05A
:1058D000BDE8F081FF2040B220B0BDE8F08100BFFC
:1058E000F07A205C88F80800002040B220B0BDE8C3
:1058F000F081000098B0FBF763FB00240120CDE9A4
:105900000544CDE90344009004904FF4E0104FF4B7
:105910008031022509906846CDE90114CDE907518F
:10592000FBF704FD20B1EFF3108072B6FEE700BF75
:105930000F20CDE90A054FF48060CDE90D040AA8D7
:1059400002210C94FBF7ECFB20B1EFF3108072B650
:10595000FEE700BF002441F21805CDE90244CDE97D
:105960000044C4F20205286840F6000A40F0100026
:1059700028602868C4F2010A00F010000A900A9812
:1059800028680AF5006740F02000286028684FF476
:10599000005100F020000A900A982868002240F088
:1059A0000400286028684FF4005600F004000A90B4
:1059B0000A98286840F008002860286800F008006D
:1059C0000A900A983846FBF7E1FA504648F210412F
:1059D0000022FBF7DBFA0AF58069484648F20831F5
:1059E0000022FBF7D3FA009611206E46CDE90104A0
:1059F0004FF0020838463146CDF80C80FBF7B8F975
:105A00001020009003200127039050463146CDE935
:105A10000174FBF7ADF94FF4004B48463146CDE930
:105A200000B7CDE90248FBF7A3F94FF48060CDE958
:105A3000000750463146CDE90248FBF799F94FF48B
:105A40008050CDE90004504631460294FBF790F9AE
:105A500050463146CDE900B7CDE90247FBF788F95A
:105A60004FF44270CDE9000748463146CDE9024780
:105A7000FBF77EF955F8040C002140F0010045F8D1
:105A8000040C55F8040C002200F00100009000986E
:105A90000C20FBF709FB0C20FBF7F4FA0D2000218A
:105AA0000022FBF701FB0D20FBF7ECFA42F2B020DD
:105AB0000AF52051C2F200004FF4827280E816000D
:105AC00010214FF40073C1610A21C0E90344C0E909
:105AD0000543C0E90844C0E90A41FBF7B1FE28B11B
